{
  "_format": "hh-sol-artifact-1",
  "contractName": "Marketplace",
  "sourceName": "src/contracts/game/Marketplace.sol",
  "abi": [
    {
      "inputs": [
        {
          "internalType": "address",
          "name": "_feeRecipient",
          "type": "address"
        }
      ],
      "stateMutability": "nonpayable",
      "type": "constructor"
    },
    {
      "inputs": [],
      "name": "AccessControlBadConfirmation",
      "type": "error"
    },
    {
      "inputs": [
        {
          "internalType": "address",
          "name": "account",
          "type": "address"
        },
        {
          "internalType": "bytes32",
          "name": "neededRole",
          "type": "bytes32"
        }
      ],
      "name": "AccessControlUnauthorizedAccount",
      "type": "error"
    },
    {
      "inputs": [],
      "name": "ReentrancyGuardReentrantCall",
      "type": "error"
    },
    {
      "anonymous": false,
      "inputs": [
        {
          "indexed": false,
          "internalType": "uint256",
          "name": "oldFee",
          "type": "uint256"
        },
        {
          "indexed": false,
          "internalType": "uint256",
          "name": "newFee",
          "type": "uint256"
        }
      ],
      "name": "FeeUpdated",
      "type": "event"
    },
    {
      "anonymous": false,
      "inputs": [
        {
          "indexed": true,
          "internalType": "uint256",
          "name": "listingId",
          "type": "uint256"
        },
        {
          "indexed": true,
          "internalType": "address",
          "name": "seller",
          "type": "address"
        }
      ],
      "name": "ListingCancelled",
      "type": "event"
    },
    {
      "anonymous": false,
      "inputs": [
        {
          "indexed": true,
          "internalType": "uint256",
          "name": "listingId",
          "type": "uint256"
        },
        {
          "indexed": true,
          "internalType": "address",
          "name": "seller",
          "type": "address"
        },
        {
          "indexed": true,
          "internalType": "address",
          "name": "nftContract",
          "type": "address"
        },
        {
          "indexed": false,
          "internalType": "uint256",
          "name": "tokenId",
          "type": "uint256"
        },
        {
          "indexed": false,
          "internalType": "address",
          "name": "paymentToken",
          "type": "address"
        },
        {
          "indexed": false,
          "internalType": "uint256",
          "name": "price",
          "type": "uint256"
        }
      ],
      "name": "NFTListed",
      "type": "event"
    },
    {
      "anonymous": false,
      "inputs": [
        {
          "indexed": true,
          "internalType": "uint256",
          "name": "saleId",
          "type": "uint256"
        },
        {
          "indexed": true,
          "internalType": "uint256",
          "name": "listingId",
          "type": "uint256"
        },
        {
          "indexed": true,
          "internalType": "address",
          "name": "buyer",
          "type": "address"
        },
        {
          "indexed": false,
          "internalType": "address",
          "name": "seller",
          "type": "address"
        },
        {
          "indexed": false,
          "internalType": "uint256",
          "name": "price",
          "type": "uint256"
        },
        {
          "indexed": false,
          "internalType": "uint256",
          "name": "fee",
          "type": "uint256"
        }
      ],
      "name": "NFTSold",
      "type": "event"
    },
    {
      "anonymous": false,
      "inputs": [
        {
          "indexed": false,
          "internalType": "address",
          "name": "token",
          "type": "address"
        },
        {
          "indexed": false,
          "internalType": "bool",
          "name": "supported",
          "type": "bool"
        }
      ],
      "name": "PaymentTokenUpdated",
      "type": "event"
    },
    {
      "anonymous": false,
      "inputs": [
        {
          "indexed": true,
          "internalType": "bytes32",
          "name": "role",
          "type": "bytes32"
        },
        {
          "indexed": true,
          "internalType": "bytes32",
          "name": "previousAdminRole",
          "type": "bytes32"
        },
        {
          "indexed": true,
          "internalType": "bytes32",
          "name": "newAdminRole",
          "type": "bytes32"
        }
      ],
      "name": "RoleAdminChanged",
      "type": "event"
    },
    {
      "anonymous": false,
      "inputs": [
        {
          "indexed": true,
          "internalType": "bytes32",
          "name": "role",
          "type": "bytes32"
        },
        {
          "indexed": true,
          "internalType": "address",
          "name": "account",
          "type": "address"
        },
        {
          "indexed": true,
          "internalType": "address",
          "name": "sender",
          "type": "address"
        }
      ],
      "name": "RoleGranted",
      "type": "event"
    },
    {
      "anonymous": false,
      "inputs": [
        {
          "indexed": true,
          "internalType": "bytes32",
          "name": "role",
          "type": "bytes32"
        },
        {
          "indexed": true,
          "internalType": "address",
          "name": "account",
          "type": "address"
        },
        {
          "indexed": true,
          "internalType": "address",
          "name": "sender",
          "type": "address"
        }
      ],
      "name": "RoleRevoked",
      "type": "event"
    },
    {
      "inputs": [],
      "name": "ADMIN_ROLE",
      "outputs": [
        {
          "internalType": "bytes32",
          "name": "",
          "type": "bytes32"
        }
      ],
      "stateMutability": "view",
      "type": "function"
    },
    {
      "inputs": [],
      "name": "DEFAULT_ADMIN_ROLE",
      "outputs": [
        {
          "internalType": "bytes32",
          "name": "",
          "type": "bytes32"
        }
      ],
      "stateMutability": "view",
      "type": "function"
    },
    {
      "inputs": [],
      "name": "OPERATOR_ROLE",
      "outputs": [
        {
          "internalType": "bytes32",
          "name": "",
          "type": "bytes32"
        }
      ],
      "stateMutability": "view",
      "type": "function"
    },
    {
      "inputs": [
        {
          "internalType": "uint256",
          "name": "listingId",
          "type": "uint256"
        }
      ],
      "name": "buyNFT",
      "outputs": [],
      "stateMutability": "nonpayable",
      "type": "function"
    },
    {
      "inputs": [
        {
          "internalType": "uint256",
          "name": "listingId",
          "type": "uint256"
        }
      ],
      "name": "cancelListing",
      "outputs": [],
      "stateMutability": "nonpayable",
      "type": "function"
    },
    {
      "inputs": [],
      "name": "feePercentage",
      "outputs": [
        {
          "internalType": "uint256",
          "name": "",
          "type": "uint256"
        }
      ],
      "stateMutability": "view",
      "type": "function"
    },
    {
      "inputs": [],
      "name": "feeRecipient",
      "outputs": [
        {
          "internalType": "address",
          "name": "",
          "type": "address"
        }
      ],
      "stateMutability": "view",
      "type": "function"
    },
    {
      "inputs": [
        {
          "internalType": "uint256",
          "name": "offset",
          "type": "uint256"
        },
        {
          "internalType": "uint256",
          "name": "limit",
          "type": "uint256"
        }
      ],
      "name": "getActiveListings",
      "outputs": [
        {
          "components": [
            {
              "internalType": "uint256",
              "name": "listingId",
              "type": "uint256"
            },
            {
              "internalType": "address",
              "name": "seller",
              "type": "address"
            },
            {
              "internalType": "address",
              "name": "nftContract",
              "type": "address"
            },
            {
              "internalType": "uint256",
              "name": "tokenId",
              "type": "uint256"
            },
            {
              "internalType": "address",
              "name": "paymentToken",
              "type": "address"
            },
            {
              "internalType": "uint256",
              "name": "price",
              "type": "uint256"
            },
            {
              "internalType": "uint256",
              "name": "createdAt",
              "type": "uint256"
            },
            {
              "internalType": "uint256",
              "name": "expiresAt",
              "type": "uint256"
            },
            {
              "internalType": "enum Marketplace.ListingStatus",
              "name": "status",
              "type": "uint8"
            }
          ],
          "internalType": "struct Marketplace.Listing[]",
          "name": "",
          "type": "tuple[]"
        }
      ],
      "stateMutability": "view",
      "type": "function"
    },
    {
      "inputs": [],
      "name": "getMarketStats",
      "outputs": [
        {
          "internalType": "uint256",
          "name": "_totalListings",
          "type": "uint256"
        },
        {
          "internalType": "uint256",
          "name": "_totalSales",
          "type": "uint256"
        },
        {
          "internalType": "uint256",
          "name": "_totalVolume",
          "type": "uint256"
        },
        {
          "internalType": "uint256",
          "name": "_activeListings",
          "type": "uint256"
        }
      ],
      "stateMutability": "view",
      "type": "function"
    },
    {
      "inputs": [
        {
          "internalType": "bytes32",
          "name": "role",
          "type": "bytes32"
        }
      ],
      "name": "getRoleAdmin",
      "outputs": [
        {
          "internalType": "bytes32",
          "name": "",
          "type": "bytes32"
        }
      ],
      "stateMutability": "view",
      "type": "function"
    },
    {
      "inputs": [
        {
          "internalType": "address",
          "name": "user",
          "type": "address"
        }
      ],
      "name": "getUserListings",
      "outputs": [
        {
          "components": [
            {
              "internalType": "uint256",
              "name": "listingId",
              "type": "uint256"
            },
            {
              "internalType": "address",
              "name": "seller",
              "type": "address"
            },
            {
              "internalType": "address",
              "name": "nftContract",
              "type": "address"
            },
            {
              "internalType": "uint256",
              "name": "tokenId",
              "type": "uint256"
            },
            {
              "internalType": "address",
              "name": "paymentToken",
              "type": "address"
            },
            {
              "internalType": "uint256",
              "name": "price",
              "type": "uint256"
            },
            {
              "internalType": "uint256",
              "name": "createdAt",
              "type": "uint256"
            },
            {
              "internalType": "uint256",
              "name": "expiresAt",
              "type": "uint256"
            },
            {
              "internalType": "enum Marketplace.ListingStatus",
              "name": "status",
              "type": "uint8"
            }
          ],
          "internalType": "struct Marketplace.Listing[]",
          "name": "",
          "type": "tuple[]"
        }
      ],
      "stateMutability": "view",
      "type": "function"
    },
    {
      "inputs": [
        {
          "internalType": "address",
          "name": "user",
          "type": "address"
        }
      ],
      "name": "getUserPurchases",
      "outputs": [
        {
          "components": [
            {
              "internalType": "uint256",
              "name": "saleId",
              "type": "uint256"
            },
            {
              "internalType": "uint256",
              "name": "listingId",
              "type": "uint256"
            },
            {
              "internalType": "address",
              "name": "seller",
              "type": "address"
            },
            {
              "internalType": "address",
              "name": "buyer",
              "type": "address"
            },
            {
              "internalType": "address",
              "name": "nftContract",
              "type": "address"
            },
            {
              "internalType": "uint256",
              "name": "tokenId",
              "type": "uint256"
            },
            {
              "internalType": "address",
              "name": "paymentToken",
              "type": "address"
            },
            {
              "internalType": "uint256",
              "name": "price",
              "type": "uint256"
            },
            {
              "internalType": "uint256",
              "name": "fee",
              "type": "uint256"
            },
            {
              "internalType": "uint256",
              "name": "timestamp",
              "type": "uint256"
            }
          ],
          "internalType": "struct Marketplace.Sale[]",
          "name": "",
          "type": "tuple[]"
        }
      ],
      "stateMutability": "view",
      "type": "function"
    },
    {
      "inputs": [
        {
          "internalType": "bytes32",
          "name": "role",
          "type": "bytes32"
        },
        {
          "internalType": "address",
          "name": "account",
          "type": "address"
        }
      ],
      "name": "grantRole",
      "outputs": [],
      "stateMutability": "nonpayable",
      "type": "function"
    },
    {
      "inputs": [
        {
          "internalType": "bytes32",
          "name": "role",
          "type": "bytes32"
        },
        {
          "internalType": "address",
          "name": "account",
          "type": "address"
        }
      ],
      "name": "hasRole",
      "outputs": [
        {
          "internalType": "bool",
          "name": "",
          "type": "bool"
        }
      ],
      "stateMutability": "view",
      "type": "function"
    },
    {
      "inputs": [
        {
          "internalType": "address",
          "name": "nftContract",
          "type": "address"
        },
        {
          "internalType": "uint256",
          "name": "tokenId",
          "type": "uint256"
        },
        {
          "internalType": "address",
          "name": "paymentToken",
          "type": "address"
        },
        {
          "internalType": "uint256",
          "name": "price",
          "type": "uint256"
        },
        {
          "internalType": "uint256",
          "name": "duration",
          "type": "uint256"
        }
      ],
      "name": "listNFT",
      "outputs": [
        {
          "internalType": "uint256",
          "name": "",
          "type": "uint256"
        }
      ],
      "stateMutability": "nonpayable",
      "type": "function"
    },
    {
      "inputs": [
        {
          "internalType": "uint256",
          "name": "",
          "type": "uint256"
        }
      ],
      "name": "listings",
      "outputs": [
        {
          "internalType": "uint256",
          "name": "listingId",
          "type": "uint256"
        },
        {
          "internalType": "address",
          "name": "seller",
          "type": "address"
        },
        {
          "internalType": "address",
          "name": "nftContract",
          "type": "address"
        },
        {
          "internalType": "uint256",
          "name": "tokenId",
          "type": "uint256"
        },
        {
          "internalType": "address",
          "name": "paymentToken",
          "type": "address"
        },
        {
          "internalType": "uint256",
          "name": "price",
          "type": "uint256"
        },
        {
          "internalType": "uint256",
          "name": "createdAt",
          "type": "uint256"
        },
        {
          "internalType": "uint256",
          "name": "expiresAt",
          "type": "uint256"
        },
        {
          "internalType": "enum Marketplace.ListingStatus",
          "name": "status",
          "type": "uint8"
        }
      ],
      "stateMutability": "view",
      "type": "function"
    },
    {
      "inputs": [
        {
          "internalType": "bytes32",
          "name": "role",
          "type": "bytes32"
        },
        {
          "internalType": "address",
          "name": "callerConfirmation",
          "type": "address"
        }
      ],
      "name": "renounceRole",
      "outputs": [],
      "stateMutability": "nonpayable",
      "type": "function"
    },
    {
      "inputs": [
        {
          "internalType": "bytes32",
          "name": "role",
          "type": "bytes32"
        },
        {
          "internalType": "address",
          "name": "account",
          "type": "address"
        }
      ],
      "name": "revokeRole",
      "outputs": [],
      "stateMutability": "nonpayable",
      "type": "function"
    },
    {
      "inputs": [
        {
          "internalType": "uint256",
          "name": "",
          "type": "uint256"
        }
      ],
      "name": "sales",
      "outputs": [
        {
          "internalType": "uint256",
          "name": "saleId",
          "type": "uint256"
        },
        {
          "internalType": "uint256",
          "name": "listingId",
          "type": "uint256"
        },
        {
          "internalType": "address",
          "name": "seller",
          "type": "address"
        },
        {
          "internalType": "address",
          "name": "buyer",
          "type": "address"
        },
        {
          "internalType": "address",
          "name": "nftContract",
          "type": "address"
        },
        {
          "internalType": "uint256",
          "name": "tokenId",
          "type": "uint256"
        },
        {
          "internalType": "address",
          "name": "paymentToken",
          "type": "address"
        },
        {
          "internalType": "uint256",
          "name": "price",
          "type": "uint256"
        },
        {
          "internalType": "uint256",
          "name": "fee",
          "type": "uint256"
        },
        {
          "internalType": "uint256",
          "name": "timestamp",
          "type": "uint256"
        }
      ],
      "stateMutability": "view",
      "type": "function"
    },
    {
      "inputs": [
        {
          "internalType": "uint256",
          "name": "_feePercentage",
          "type": "uint256"
        }
      ],
      "name": "setFeePercentage",
      "outputs": [],
      "stateMutability": "nonpayable",
      "type": "function"
    },
    {
      "inputs": [
        {
          "internalType": "address",
          "name": "_feeRecipient",
          "type": "address"
        }
      ],
      "name": "setFeeRecipient",
      "outputs": [],
      "stateMutability": "nonpayable",
      "type": "function"
    },
    {
      "inputs": [
        {
          "internalType": "address",
          "name": "nftContract",
          "type": "address"
        },
        {
          "internalType": "bool",
          "name": "supported",
          "type": "bool"
        }
      ],
      "name": "setSupportedNFTContract",
      "outputs": [],
      "stateMutability": "nonpayable",
      "type": "function"
    },
    {
      "inputs": [
        {
          "internalType": "address",
          "name": "token",
          "type": "address"
        },
        {
          "internalType": "bool",
          "name": "supported",
          "type": "bool"
        }
      ],
      "name": "setSupportedPaymentToken",
      "outputs": [],
      "stateMutability": "nonpayable",
      "type": "function"
    },
    {
      "inputs": [
        {
          "internalType": "address[]",
          "name": "tokens",
          "type": "address[]"
        },
        {
          "internalType": "bool[]",
          "name": "supported",
          "type": "bool[]"
        }
      ],
      "name": "setSupportedPaymentTokensBatch",
      "outputs": [],
      "stateMutability": "nonpayable",
      "type": "function"
    },
    {
      "inputs": [
        {
          "internalType": "address",
          "name": "",
          "type": "address"
        }
      ],
      "name": "supportedNFTContracts",
      "outputs": [
        {
          "internalType": "bool",
          "name": "",
          "type": "bool"
        }
      ],
      "stateMutability": "view",
      "type": "function"
    },
    {
      "inputs": [
        {
          "internalType": "address",
          "name": "",
          "type": "address"
        }
      ],
      "name": "supportedPaymentTokens",
      "outputs": [
        {
          "internalType": "bool",
          "name": "",
          "type": "bool"
        }
      ],
      "stateMutability": "view",
      "type": "function"
    },
    {
      "inputs": [
        {
          "internalType": "bytes4",
          "name": "interfaceId",
          "type": "bytes4"
        }
      ],
      "name": "supportsInterface",
      "outputs": [
        {
          "internalType": "bool",
          "name": "",
          "type": "bool"
        }
      ],
      "stateMutability": "view",
      "type": "function"
    },
    {
      "inputs": [],
      "name": "totalListings",
      "outputs": [
        {
          "internalType": "uint256",
          "name": "",
          "type": "uint256"
        }
      ],
      "stateMutability": "view",
      "type": "function"
    },
    {
      "inputs": [],
      "name": "totalSales",
      "outputs": [
        {
          "internalType": "uint256",
          "name": "",
          "type": "uint256"
        }
      ],
      "stateMutability": "view",
      "type": "function"
    },
    {
      "inputs": [],
      "name": "totalVolume",
      "outputs": [
        {
          "internalType": "uint256",
          "name": "",
          "type": "uint256"
        }
      ],
      "stateMutability": "view",
      "type": "function"
    }
  ],
  "bytecode": "0x608034620000f857601f6200260a38819003918201601f19168301916001600160401b03831184841017620000fd57808492602094604052833981010312620000f857516001600160a01b03811690819003620000f8576001805560fa6008558015620000a857620000713362000113565b506200007d3362000193565b5060018060a01b03196009541617600955600160025560016003556040516123b49081620002368239f35b60405162461bcd60e51b815260206004820152602260248201527f4d61726b6574706c6163653a20696e76616c69642066656520726563697069656044820152611b9d60f21b6064820152608490fd5b600080fd5b634e487b7160e01b600052604160045260246000fd5b6001600160a01b031660008181527fad3228b676f7d3cd4284a5443f17f1962b36e491b30a40b2405849e597ba5fb5602052604081205490919060ff166200018f57818052816020526040822081835260205260408220600160ff198254161790553391600080516020620025ea8339815191528180a4600190565b5090565b6001600160a01b031660008181527f7d7ffb7a348e1c6a02869081a26547b49160dd3df72d1d75a570eb9b698292ec60205260408120549091907fa49807205ce4d355092ef5a8a18f56e8913cf4a201fbe287825b095693c217759060ff166200023057808352826020526040832082845260205260408320600160ff19825416179055600080516020620025ea833981519152339380a4600190565b50509056fe608080604052600436101561001357600080fd5b600090813560e01c90816301ffc9a714611b7b57508063248a9ca314611b4f5780632f2ff15d14611b12578063305a67a814611a2957806336568abe146119e157806346904840146119b857806349bf28c41461193357806351ed828814611283578063531af6b414610d3b5780635f81a57c14610d1d5780636605ff6614610cff578063730a28f414610cc057806375b238fc14610c8557806391d1485414610c3a578063a001ecdd14610c1c578063a217fddf14610c00578063ae06c1b714610b5b578063b1361a6114610b06578063b1c5578c14610ac7578063b5f522f714610a28578063c128b231146109f9578063c2bae60a146107d2578063c6e5d8f614610559578063c78b616c1461053b578063d547741f146104fa578063de74e57b1461045d578063e74b981b146103c6578063eb18a9d814610268578063f5b541a61461022d5763ff4cd5b91461016b57600080fd5b3461022a578060031936011261022a57806001600254905b8181106101af57608083600a5490600b54600c5490604051938452602084015260408301526060820152f35b80845260206004815260ff6008604087200154166003811015610216571590816101fd575b506101e8575b6101e390611f2c565b610183565b916101f56101e391611f2c565b9290506101da565b60049150828652526007604085200154421115386101d4565b634e487b7160e01b86526021600452602486fd5b80fd5b503461022a578060031936011261022a5760206040517f97667070c54ef182b0f5858b034beac1b6f3089aa2d3188bb1e8929f4fa9b9298152f35b503461022a576020908160031936011261022a57610284611be6565b60028054926001600160a01b03928316929091908260015b86811061038b57506102ad90612010565b958360015b8781106102cb57604051806102c78b82611c2e565b0390f35b808252600483526040822084600182015416908882146102f6575b50506102f190611f2c565b6102b2565b966103839161036860ff60086102f1969b6040519461031486611d0b565b815486528a8601528a8c820154166040860152600381015460608601528a6004820154166080860152600581015460a0860152600681015460c0860152600781015460e08601520154166101008301611f5e565b610372828d611fe6565b5261037d818c611fe6565b50611f2c565b9590386102e6565b808552600488528583600160408820015416146103b1575b6103ac90611f2c565b61029c565b906103be6103ac91611f2c565b9190506103a3565b503461022a57602036600319011261022a576103e0611be6565b6103e8611d62565b6001600160a01b0316801561040d576001600160601b0360a01b600954161760095580f35b60405162461bcd60e51b815260206004820152602260248201527f4d61726b6574706c6163653a20696e76616c69642066656520726563697069656044820152611b9d60f21b6064820152608490fd5b503461022a57602036600319011261022a5760406101209160043581526004602052206104f881549160018060a01b03908160018201541691806002830154169060038301549060048401541660058401549160068501549360ff600860078801549701541696604051998a5260208a015260408901526060880152608087015260a086015260c085015260e0840152610100830190611c0b565bf35b503461022a57604036600319011261022a5761053760043561051a611bd0565b90808452836020526105326001604086200154611ddc565b611e80565b5080f35b503461022a578060031936011261022a576020600a54604051908152f35b503461022a576020806003193601126107ce57610574611be6565b600380546001600160a01b039492839290861660015b838110610794575061059b85611d4a565b946105a96040519687611d28565b8086526105b8601f1991611d4a565b0186855b82811061074057505050839060015b8481106106785750505050506040519280840190808552835180925280604086019401925b8281106105fd5785850386f35b835180518652808301518684015260408082015189169087015260608082015189169087015260808082015189169087015260a0808201519087015260c08082015189169087015260e080820151908701526101008082015190870152610120908101519086015261014090940193928101926001016105f0565b80865287600580825260408820908b8088840154168681146106a8575b50505050506106a390611f2c565b6105cb565b9261073394926009926106a3979995604051956106c487611cd8565b845487526001850154908701528160028501541660408701526060860152600483015416608085015281015460a08401528d60068201541660c0840152600781015460e084015260088101546101008401520154610120820152610728828b611fe6565b5261037d818a611fe6565b9290508738808b81610695565b60405161074c81611cd8565b87815287838201528760408201528760608201528760808201528760a08201528760c08201528760e0820152876101008201528761012082015282828a0101520187906105bc565b8085526005875281888460408820015416146107b9575b6107b490611f2c565b61058a565b946107c66107b491611f2c565b9590506107ab565b5080fd5b503461022a57604036600319011261022a5760043567ffffffffffffffff8082116109f557366023830112156109f55781600401359161081183611d4a565b9261081f6040519485611d28565b8084526020918285016024809360051b830101913683116109ce578301905b8282106109d65750505080359283116109d257366023840112156109d25782600401359261086b84611d4a565b936108796040519586611d28565b808552828486019160051b830101913683116109ce578301905b8282106109b1575050506108a5611d62565b83518351036109625750835b835181101561095e57807f19c6e2fbd27c3204efb106f0081d2d7ffaf44da224ca04fbc0d8a262ba40f5556108e96109599386611fe6565b516001600160a01b039061092190151582610904868b611fe6565b51168a526006875260408a209060ff801983541691151516179055565b61092b8388611fe6565b51166109378387611fe6565b51604080516001600160a01b03939093168352901515602083015290a1611f2c565b6108b1565b8480f35b9060236084926040519262461bcd60e51b845260048401528201527f4d61726b6574706c6163653a20617272617973206c656e677468206d69736d616044820152620e8c6d60eb1b6064820152fd5b813580151581036109c9578152908401908401610893565b600080fd5b8780fd5b8480fd5b81356001600160a01b03811681036109c957815290840190840161083e565b8280fd5b503461022a57604036600319011261022a576102c7610a1c6024356004356120a1565b60405191829182611c2e565b503461022a57602036600319011261022a57604061014091600435815260056020522080549060018101549060018060a01b038060028301541690806003840154169080600485015416600585015491600686015416926007860154946009600888015497015497604051998a5260208a015260408901526060880152608087015260a086015260c085015260e0840152610100830152610120820152f35b503461022a57602036600319011261022a5760209060ff906040906001600160a01b03610af2611be6565b168152600684522054166040519015158152f35b503461022a57604036600319011261022a57610b58610b23611be6565b610b2b611bfc565b90610b34611d62565b60018060a01b031683526007602052604083209060ff801983541691151516179055565b80f35b503461022a57602036600319011261022a57600435610b78611d62565b6103e88111610bbb5760407f528d9479e9f9889a87a3c30c7f7ba537e5e59c4c85a37733b16e57c62df6130291600854908060085582519182526020820152a180f35b60405162461bcd60e51b815260206004820152601960248201527f4d61726b6574706c6163653a2066656520746f6f2068696768000000000000006044820152606490fd5b503461022a578060031936011261022a57602090604051908152f35b503461022a578060031936011261022a576020600854604051908152f35b503461022a57604036600319011261022a576040610c56611bd0565b91600435815280602052209060018060a01b0316600052602052602060ff604060002054166040519015158152f35b503461022a578060031936011261022a5760206040517fa49807205ce4d355092ef5a8a18f56e8913cf4a201fbe287825b095693c217758152f35b503461022a57602036600319011261022a5760209060ff906040906001600160a01b03610ceb611be6565b168152600784522054166040519015158152f35b503461022a578060031936011261022a576020600b54604051908152f35b503461022a578060031936011261022a576020600c54604051908152f35b503461022a5760a036600319011261022a57610d55611be6565b60448035906001600160a01b03821682036109c957610d72611f6a565b6001600160a01b03831684526007602052604084205460ff161561122f576001600160a01b03821684526006602052604084205460ff16156111da5760643515611184576084351561112b576040516331a9108f60e11b81526024803560048301526020908290816001600160a01b0388165afa90811561108e57859161110c575b50336001600160a01b03909116036110c85760405163e985e9c560e01b815233600482015230602482015260208183816001600160a01b0388165afa90811561108e578591611099575b508015611017575b15610fd3575060025491610e5983611f2c565b600255610e6860843542611f51565b60405190610e7582611d0b565b84825233602083015260018060a01b0383166040830152602435606083015260018060a01b038416608083015260643560a08301524260c083015260e0820152846101008201528385526004602052610100600860408720835181556001810160018060a01b03602086015116906001600160601b0360a01b91828254161790556002820160018060a01b036040870151168282541617905560608501516003830155600482019060018060a01b036080870151169082541617905560a0840151600582015560c0840151600682015560e08401516007820155019101516003811015610216576020955060ff80198354169116179055610f77600a54611f2c565b600a5560405191602435835260018060a01b031684830152606435604083015260018060a01b031690827f1e25fc8c928dd31a9c3eaae05546a0ccbbd49ce772d96d508940bd80708ade0c60603393a460018055604051908152f35b6064907f4d61726b6574706c6163653a206e6f7420617070726f766564000000000000006040519162461bcd60e51b83526020600484015260196024840152820152fd5b5060405163020604bf60e21b81526024803560048301526020908290816001600160a01b0388165afa90811561108e57859161105f575b506001600160a01b03163014610e46565b611081915060203d602011611087575b6110798183611d28565b810190611ef5565b3861104e565b503d61106f565b6040513d87823e3d90fd5b6110bb915060203d6020116110c1575b6110b38183611d28565b810190611f14565b38610e3e565b503d6110a9565b6064907f4d61726b6574706c6163653a206e6f7420746f6b656e206f776e6572000000006040519162461bcd60e51b835260206004840152601c6024840152820152fd5b611125915060203d602011611087576110798183611d28565b38610df4565b6084907f4d61726b6574706c6163653a206475726174696f6e206d7573742062652067726040519162461bcd60e51b835260206004840152602c60248401528201526b06561746572207468616e20360a41b6064820152fd5b6084907f4d61726b6574706c6163653a207072696365206d7573742062652067726561746040519162461bcd60e51b835260206004840152602960248401528201526806572207468616e20360bc1b6064820152fd5b6084907f4d61726b6574706c6163653a207061796d656e7420746f6b656e206e6f7420736040519162461bcd60e51b83526020600484015260286024840152820152671d5c1c1bdc9d195960c21b6064820152fd5b6084907f4d61726b6574706c6163653a204e465420636f6e7472616374206e6f742073756040519162461bcd60e51b83526020600484015260276024840152820152661c1c1bdc9d195960ca1b6064820152fd5b503461022a57602036600319011261022a5761129d611f6a565b6004358152600460205260408120600881019060ff825416600381101561191f576112c89015611f8d565b600781015442116118da576001810180546001600160a01b031633811461189557600283019260018060a01b038454169260038201958654604051906331a9108f60e11b82526004820152602081602481895afa801561188a5785918a9161186b575b506001600160a01b03160361181757600483019060018060a01b0382541690604051946370a0823160e01b8652336004870152602086602481865afa958615611701578b966117de575b5060050196875480961061178f5760085496868881020488148715171561177b5760206113e5918d6113ad6127108c8c02048b611fd9565b6040516323b872dd60e01b81523360048201526001600160a01b03909316602484015260448301529092839190829081906064820190565b0391885af1908115611770578c91611751575b501561170c578a9261271088880204611640575b5060018060a01b038554168a54823b156109d257604051632142170760e11b81526001600160a01b0392909216600483015233602483015260448201529083908290606490829084905af1801561163557611604575b50918460099261271098999a604095600160ff198254161790556003549b8c9461148b86611f2c565b60035588549154925490548d5489519990956001600160a01b039283169594831694909216918a918e916114be84611cd8565b8a84526127106020850193600435855283860198895261010060608701963388526080810198895260a08101998a5260c081019b8c5260e081019c8d52019b02048a526101208d019a428c5281526005602052209a518b555160018b015560028a019360018060a01b03905116936001600160601b0360a01b948582541617905560038a019060018060a01b0390511684825416179055600489019060018060a01b0390511683825416179055516005880155600687019160018060a01b0390511690825416179055516007850155516008840155519101556115a2600b54611f2c565b600b556115b28554600c54611f51565b600c5560018060a01b03905416935460405194855260208501520204604082015233917f22f9e5c7d87e881b10964c7d630b191d2595dac02995b1aa9874ca57ee9b7241606060043593a46001805580f35b90915067ffffffffffffffff811161162157604052889084611462565b634e487b7160e01b8a52604160045260248afd5b6040513d85823e3d90fd5b6009546040516323b872dd60e01b81523360048201526001600160a01b039091166024820152612710888a02046044820152919360209183916064918391905af1908115611701578b916116e2575b501561169d5789913861140c565b60405162461bcd60e51b815260206004820152601f60248201527f4d61726b6574706c6163653a20666565207061796d656e74206661696c6564006044820152606490fd5b6116fb915060203d6020116110c1576110b38183611d28565b3861168f565b6040513d8d823e3d90fd5b60405162461bcd60e51b815260206004820152601b60248201527f4d61726b6574706c6163653a207061796d656e74206661696c656400000000006044820152606490fd5b61176a915060203d6020116110c1576110b38183611d28565b386113f8565b6040513d8e823e3d90fd5b634e487b7160e01b8c52601160045260248cfd5b60405162461bcd60e51b815260206004820152602160248201527f4d61726b6574706c6163653a20696e73756666696369656e742062616c616e636044820152606560f81b6064820152608490fd5b9095506020813d60201161180f575b816117fa60209383611d28565b8101031261180b5751946005611375565b8a80fd5b3d91506117ed565b60405162461bcd60e51b815260206004820152602660248201527f4d61726b6574706c6163653a2073656c6c6572206e6f206c6f6e676572206f776044820152651b9cc813919560d21b6064820152608490fd5b611884915060203d602011611087576110798183611d28565b3861132b565b6040513d8b823e3d90fd5b60405162461bcd60e51b815260206004820152601f60248201527f4d61726b6574706c6163653a2063616e6e6f7420627579206f776e204e4654006044820152606490fd5b60405162461bcd60e51b815260206004820152601c60248201527f4d61726b6574706c6163653a206c697374696e672065787069726564000000006044820152606490fd5b634e487b7160e01b84526021600452602484fd5b503461022a57604036600319011261022a577f19c6e2fbd27c3204efb106f0081d2d7ffaf44da224ca04fbc0d8a262ba40f55561196e611be6565b611976611bfc565b9061197f611d62565b6001600160a01b0316808452600660209081526040808620805460ff191660ff951515958616179055805192835290820192909252a180f35b503461022a578060031936011261022a576009546040516001600160a01b039091168152602090f35b503461022a57604036600319011261022a576119fb611bd0565b336001600160a01b03821603611a175761053790600435611e80565b60405163334bd91960e11b8152600490fd5b503461022a57602036600319011261022a57600435611a46611f6a565b80825260046020526040822060018101546001600160a01b03163303611acd57600801805460ff81166003811015611ab95790611a8560029215611f8d565b60ff191617905533907f8e25282255ab31897df2b0456bb993ac7f84d376861aefd84901d2d63a7428a28380a36001805580f35b634e487b7160e01b85526021600452602485fd5b60405162461bcd60e51b815260206004820152601760248201527f4d61726b6574706c6163653a206e6f742073656c6c65720000000000000000006044820152606490fd5b503461022a57604036600319011261022a57610537600435611b32611bd0565b9080845283602052611b4a6001604086200154611ddc565b611e02565b503461022a57602036600319011261022a57600160406020926004358152808452200154604051908152f35b9050346107ce5760203660031901126107ce5760043563ffffffff60e01b81168091036109f55760209250637965db0b60e01b8114908115611bbf575b5015158152f35b6301ffc9a760e01b14905038611bb8565b602435906001600160a01b03821682036109c957565b600435906001600160a01b03821682036109c957565b6024359081151582036109c957565b906003821015611c185752565b634e487b7160e01b600052602160045260246000fd5b60208082019080835283518092528060408094019401926000905b838210611c5857505050505090565b909192939483610120600192611ccb895180518352858060a01b0380868301511686850152808883015116888501526060808301519085015260809081830151169084015260a0808201519084015260c0808201519084015260e080820151908401526101008091015190830190611c0b565b0196019493920190611c49565b610140810190811067ffffffffffffffff821117611cf557604052565b634e487b7160e01b600052604160045260246000fd5b610120810190811067ffffffffffffffff821117611cf557604052565b90601f8019910116810190811067ffffffffffffffff821117611cf557604052565b67ffffffffffffffff8111611cf55760051b60200190565b3360009081527f7d7ffb7a348e1c6a02869081a26547b49160dd3df72d1d75a570eb9b698292ec60205260409020547fa49807205ce4d355092ef5a8a18f56e8913cf4a201fbe287825b095693c217759060ff1615611dbe5750565b6044906040519063e2517d3f60e01b82523360048301526024820152fd5b80600052600060205260406000203360005260205260ff6040600020541615611dbe5750565b9060009180835282602052604083209160018060a01b03169182845260205260ff60408420541615600014611e7b57808352826020526040832082845260205260408320600160ff198254161790557f2f8788117e7eff1d82e926ec794901d17c78024a50270940304540a733656f0d339380a4600190565b505090565b9060009180835282602052604083209160018060a01b03169182845260205260ff604084205416600014611e7b5780835282602052604083208284526020526040832060ff1981541690557ff6391f5c32d9c69d2a47ea670b442974b53935d1edc7fd64eb21e047a839171b339380a4600190565b908160209103126109c957516001600160a01b03811681036109c95790565b908160209103126109c9575180151581036109c95790565b6000198114611f3b5760010190565b634e487b7160e01b600052601160045260246000fd5b91908201809211611f3b57565b6003821015611c185752565b600260015414611f7b576002600155565b604051633ee5aeb560e01b8152600490fd5b15611f9457565b60405162461bcd60e51b815260206004820152601f60248201527f4d61726b6574706c6163653a206c697374696e67206e6f7420616374697665006044820152606490fd5b91908203918211611f3b57565b8051821015611ffa5760209160051b010190565b634e487b7160e01b600052603260045260246000fd5b9061201a82611d4a565b60409061202982519182611d28565b838152809361203a601f1991611d4a565b019160005b83811061204c5750505050565b602090825161205a81611d0b565b60008152826000818301526000858301526000606083015260006080830152600060a0830152600060c0830152600060e0830152600061010083015282860101520161203f565b81151580612373575b1561232e57600280549290600060015b8581106122aa57508084101561228157836120d491611fd9565b91808311612279575b506120e782612010565b94600090819360015b87811080612270575b156122655780600052600460209080825260ff906008906040908383836000200154166003908181101561225057908f95949392918e901580612236575b612152575b505050505050505061214d90611f2c565b6120f0565b90888d93928f9a9f1015612184575b50505050505050505061217661214d91611f2c565b95908938808080808d61213c565b95612176989561221b958e989561214d9c9f9695612216956122269c97600052818b52836000209380519b8c946121ba86611d0b565b8654865260018060a01b039586928360018a01541691015286015416908c015283015460608b0152820154166080890152600581015460a0890152600681015460c0890152600781015460e08901520154166101008601611f5e565b611fe6565b5261037d818d611fe6565b949150893880808981808d612161565b5050876000528187528d6007846000200154421115612137565b602183634e487b7160e01b6000525260246000fd5b509095505050505050565b508184106120f9565b9150386120dd565b50505050506040516020810181811067ffffffffffffffff821117611cf5576040526000815290565b80600052600460209080825260409060ff600883600020015416600381101561231957159283612300575b5050506122eb575b6122e690611f2c565b6120ba565b906122f86122e691611f2c565b9190506122dd565b60079350846000525260002001544211153880806122d5565b602182634e487b7160e01b6000525260246000fd5b60405162461bcd60e51b815260206004820152601a60248201527f4d61726b6574706c6163653a20696e76616c6964206c696d69740000000000006044820152606490fd5b5060648211156120aa56fea2646970667358221220671a4949ccd8e864889835a39781085aa1a8674734dde1b7b623dff76181518364736f6c634300081400332f8788117e7eff1d82e926ec794901d17c78024a50270940304540a733656f0d",
  "linkReferences": {},
  "deployedLinkReferences": {}
}